:0A0000008031022888018F31002FA3
:101E00002100F03099009501FB308C0022009101F7
:101E1000970101309D00240008308C0020008B01C8
:101E20009E018C0123008C0190309D0024309E0087
:101E300008309F0040309B0003309C002000911E22
:101E40001E2F23001908F600403A0319A22F760826
:101E5000803A031D342FC9278F312000111E2D2FEA
:101E6000FA30AD278F3101007608303903191E2F63
:101E7000D1278F31F31B1E2F7208F7007308F8006B
:101E8000D1278F31F31B1E2F7208F9007308FA0057
:101E90007608103A031D602F803095007708910076
:101EA00078089200F70A0319F80A151400000000D8
:101EB0001308CA278F311408CA278F31F90B4E2F08
:101EC0007608203A031D8C2F213079020318A92FA0
:101ED0000E307802E130031977020318A92FC927C1
:101EE0008F317808920077089100A4309500D127AF
:101EF0008F31F31B1E2FC9278F317208930073088F
:101F000094007908013A03199512EE278F31910A4E
:101F1000F90B772F1511A22F7608303A031D1E2FCB
:101F20000E307802E130031977020318A92F7708E1
:101F300091007808920094309500EE278F311511AA
:101F4000A22F1E2FC9278F311E2FE030CA278F31B5
:101F50001E2FA030CA278F311E2FF1006A30FB00E0
:101F6000FB0BB02FF10BAE2F0800FA30F000200071
:101F7000911EBD2F2300190808000130AD278F31B5
:101F8000F00BB72FFF342000111EC32F23009A003F
:101F900008005030F0000F39C3278F31700E0F3911
:101FA000C32FB5278F31F200B5278F31F400B52745
:101FB0008F31F300B5278F31F500F20874047304F4
:101FC0007504F039031DE92F740EF204750EF30445
:101FD0000800E030CA278F31F3170800553096000B
:101FE000AA3096009514000000009518F52F0800FF
:020000040001F9
:04000E0084C9FFDBC7
:00000001FF
