:100000000C9434000C9415020C9451000C94510083
:100010000C9451000C9451000C9451000C9451001C
:100020000C9451000C9451000C9451000C9451000C
:100030000C9451000C94E6010C9451000C94510066
:100040000C9451000C9451000C9451000C945100EC
:100050000C9451000C9451000C9451000C945100DC
:100060000C9451000C94510011241FBECFEFD8E026
:10007000DEBFCDBF11E0A0E0B1E0E6E1FDE002C0EF
:1000800005900D92A830B107D9F721E0A8E0B1E0C2
:1000900001C01D92A733B207E1F70E94D1030C946F
:1000A00089060C9400009091C00095FFFCCF8093CE
:1000B000C6000895E8E0F1E01182108212821382F6
:1000C000E1EBF0E08081887F81608083E4E2F0E012
:1000D00080818860808380913C008E7F80933C008B
:1000E00080913D00816080933D000895FC019AEF6E
:1000F00028EC30E08091C00087FF13C08091C600DB
:100100008083615031969150A1F4215031096111E1
:1001100003C081E090E008952115310539F09AEF90
:10012000E9CF85E18A95F1F70000EDCF90E080E01E
:1001300008956111DFCFEDCF882391F08091B10058
:10014000887F81608093B1008091240088608093D3
:1001500024008FEF93E00197F1F700C000000895AD
:100160008091B100887F8093B10080912400877FC7
:10017000809324008FED91E00197F1F700C000001B
:100180008091B100887F81608093B10080912400CC
:100190008860809324008FE192E00197F1F7DDCF32
:1001A0000F931F93CF93DF93182FD62FD078C62F9E
:1001B000CF77C15040F0012F0170802F0E949C002A
:1001C000D0271695F6CF81E0D13809F080E0DF9195
:1001D000CF911F910F910C949C00A1EBB0E08C91FA
:1001E000887F8C93E4E2F0E08081877F80838FEBCF
:1001F00090E00197F1F700C000008C91887F81604A
:100200008C938081886080838FE791E00197F1F77C
:1002100000C000008C91887F8C938081877F8083D1
:100220008FEF94E00197F1F700C000008C91887F78
:1002300081608C938081886080838FE192E0019758
:10024000F1F700C0000080E00C949C00CF92DF9298
:10025000EF92FF921F93CF93DF93EC01162F0E9432
:10026000ED0063E882E00E94D00066E8812F0E94E2
:10027000D0006E0124E0C20ED11C10E068E8FE013F
:1002800081917F010E94D00088811827E701EC143A
:10029000FD04A1F768E0812F0E94D0008091B10099
:1002A000887F81608093B100809124008860809372
:1002B0002400FFEF21EE84E0F15020408040E1F780
:1002C00000C00000DF91CF911F91FF90EF90DF9071
:1002D000CF900895262F2150330BA90121E001C0B2
:1002E000220F4A95EAF7615060F1EFEFF2E03197A3
:1002F000F1F700C00000982F922331F0EFEFF3E008
:100300003197F1F700C000009091B100987F909371
:10031000B10090912400977F90932400EFEBF1E0DF
:100320003197F1F700C000009091B100987F916083
:100330009093B10090912400986090932400880FCE
:10034000D2CF0895EF92FF921F93CF93DF937C015A
:10035000162F8091B100887F8093B1008091240096
:10036000877F809324008FEB93E00197F1F700C023
:1003700000008091B100887F81608093B1008091FE
:10038000240088608093240063E084E00E946A0176
:10039000E70194E0E90EF11C68E089910E946A018E
:1003A000CE15DF05C9F763E0812F0E946A012FEFA8
:1003B00081EE94E0215080409040E1F700C00000C1
:1003C000DF91CF911F91FF90EF9008951F920F92B0
:1003D0000FB60F9211248F939F93EF93FF93E1E851
:1003E000F0E08081887F80831092850010928400E5
:1003F000EFE6F0E080818E7F8083E6E3F0E08081AD
:100400008E7F8083E8E0F1E0808191818827937876
:100410009183808312821382FF91EF919F918F913C
:100420000F900FBE0F901F9018951F920F920FB64E
:100430000F9211242F933F938F939F93EF93FF93EA
:1004400080918100887F8093810020918400309189
:100450008500109285001092840080918100887F31
:1004600082608093810080916F00816080936F0033
:10047000909129008091090192FB83F980930901F1
:10048000809109018F7C806280930901C90188579E
:100490009140893F910508F080C0809109018F5FEC
:1004A0008370909109019C7F982B90930901823071
:1004B00009F069C08091090183FB882780F9982F92
:1004C0009295907F809109018F7C892B80930901FF
:1004D000809109018C7F80930901809109018295A7
:1004E0008370823008F047C18091090187FDE2C026
:1004F00080910A01893008F076C0809109018295C7
:10050000837019F48FEF80930A0180910A018F5F45
:1005100080930A01803439F580918100887F80932F
:100520008100109285001092840080916F008E7F70
:1005300080936F00809136008E7F8093360080918B
:10054000B100887F8093B10080912400877F8093E1
:10055000240080913D008E7F80933D0080910901B1
:1005600080648093090180913C008E7F80933C00E1
:10057000FF91EF919F918F913F912F910F900FBE1F
:100580000F901F901895809109018370813009F0B8
:10059000A4CF8091090180639ECF2F5E3240233F1C
:1005A000314008F09ACF809109018F5F837090915C
:1005B00009019C7F982B90930901823009F08DCF1F
:1005C0008091090183FB882780F9982F9295907F6D
:1005D000809109018F7C892B809309018091090109
:1005E0008C7F816078CF809109019091090192FB05
:1005F000992790F98295817089279091090180FB54
:1006000092F990930901809108018F5F8F7090910A
:100610000801907F982B909308018530D1F5809147
:100620000A018F3321F08091090182FD2BC0809156
:100630000A018F3329F4809109018295837011F5A5
:10064000E0910801E295EF70F0E080910B01E85F26
:10065000FE4F848380910801807F90E1980F809104
:1006600008018F70892B8093080180910801807F99
:1006700080930801809109018B7F8093090110927A
:100680000B0143CF8FEF80930A01809108018F7097
:10069000EACF80910B01880F80930B0180910901B3
:1006A0008295837009F431CF80910B018160809332
:1006B0000B012BCF80910A01811125C08091090186
:1006C00082958370813019F48FEF80930A018091B5
:1006D0000A018F5F80930A01813209F044CF809133
:1006E0008100887F809381001092850010928400A1
:1006F00080916F008E7F80936F00809136008E7F97
:100700008093360026CF80910B01880F80930B01D8
:10071000809109018295837029F080910B0181609D
:1007200080930B01809108018F5F8F709091080179
:10073000907F982B90930801883049F6E09108014A
:10074000E295EF70F0E080910B01E85FFE4F84834B
:1007500080910801807F90E1980F809108018F704F
:10076000892B8093080180910801807F8093080184
:1007700010920B01ACCF8091090182958370823079
:1007800009F0F1CE809108019091090188279378B2
:10079000909309018093080110920A0110920B01B5
:1007A000E2CECF93DF93CDB7DEB7C055D1090FB6F8
:1007B000F894DEBF0FBECDBF1092250088E2809373
:1007C0002400109228001092270010922B00109203
:1007D0002A0087E690E09093C5008093C40086E0ED
:1007E0008093C2008091C10088608093C100809195
:1007F000C10080618093C100809124008860809353
:1008000024008091B00083608093B0008091B1009B
:1008100088608093B1008091B0008F738064809372
:10082000B0008FE38093B300809169008C7F81607A
:100830008093690080913C008E7F80933C00789487
:100840000E945A0010E000E0DD24D394CC24C3942D
:1008500030E8B32E1A3008F044C08091090186FFB9
:1008600040C0809109018F7B8093090190E080E076
:10087000FC01E85FFE4F248130911601232720936D
:10088000160101968A30910599F725E0129FB00173
:10089000112441E050E090E080E0FC01EE0FFF1FEA
:1008A000E85FFE4F2481FA01E85FFE4F3481FC01CE
:1008B000E60FF71FA1E0B0E0AC0FBD1FEA0FFB1F72
:1008C0002295207F232B208301964E5F5F4F85303A
:1008D000910519F780911601882309F418C20E9426
:1008E0005A008091C00087FFB5CF8091C00087FF7C
:1008F000FCCF7090C600B4E07B120AC0F12EF01A53
:100900008F2D0E9453008F2D80950E945300A2CFFF
:10091000E8E07E124AC0101709F445C00A3008F01A
:1009200042C0EE24E394F12CEC0EFD1EF5E00F9F87
:10093000E00CF11C1124470125E0820E911CA12C32
:10094000D7017D907D01872D82958F70895B0E94F4
:100950005300872D8F70895B0E945300A70C8E1463
:100960009F0471F7A1948A2D82958F70895B0E94F4
:1009700053008A2D8F70895B0E9453001BAA61E08F
:10098000CE01C3960E947600892B09F463CF8BA910
:100990008A1160CF0F5F101304C00E945A0010E04C
:1009A00000E080E0B2CF82E8B0CFB0E17B1208C0B7
:1009B0000E945A0080E00E94530000E010E04DCFFA
:1009C000872D807609F4A1C1E72DE370AE2EEE2EBF
:1009D000F12CF5E0EF9F40011124B4016F5F7F4FD0
:1009E000660FCE01C3960E947600892B09F48BC155
:1009F0009E012D5C3F4FF901612C90E0462D50E0A7
:100A000084169506ACF080818754A0E18A9FB001DE
:100A1000112481818754862B63E370E06C0F7D1F66
:100A2000460F571FDA018C93980F63943296E6CFE6
:100A3000911167C180912500806280932500F89410
:100A400075FEC2C08091B100887F81608093B10043
:100A500080912400886080932400BFEFE9E6F8E1EC
:100A6000B150E040F040E1F700C00000B6E0EE0C0D
:100A7000FF1CBA95E1F780910301E82AE092030197
:100A800007E111E02801E12C88248A94AE1014C0FB
:100A9000AA0CF12CAF1409F452C061E06F0DC8012B
:100AA0000E94A201F394F3946F2DC80104960E9452
:100AB000A201085F1F4FEECFB901F2013196D201BA
:100AC0008C921196BC9290E0F12C50E880E4DB010E
:100AD0004C91912CA4E07A2E642E652221F09D2465
:100AE0006080682A6082869519F41182319680E8C8
:100AF000569509F450E87A947110EECF992019F0C8
:100B00009080982A9082869519F41182319680E817
:100B1000F0FE13C06F5F7F4F4F709427F394BAE0DD
:100B2000FB12D5CF990F8081982B9083E3942B5F94
:100B30003F4FE8E04E0E511CA9CF4295EDCF60E04B
:100B400080E091E00E94A2018091B100887F8093B3
:100B5000B10080912400877F809324008FEB93E085
:100B60000197F1F700C000008091B100887F81609B
:100B70008093B1008091240088608093240062E01B
:100B800080E00E946A019FEFA9E6B8E19150A04081
:100B9000B040E1F700C000008091B100887F8093F1
:100BA000B10080912400877F8093240080E00E9420
:100BB00053000E945A00809125008F7D809325006C
:100BC000789410E000E049CE76FEF0CF8FEF80936E
:100BD0002F01C092300190E040E030E882E0E0E395
:100BE000F1E0DE01D3962C9150E064E0722F732384
:100BF00021F05D257081782B7083880F19F41182A4
:100C0000319681E0369509F430E8615079F7552343
:100C100019F05081582B5083880F19F411823196A6
:100C200081E040FF6CC011962F7092274F5F4A30D1
:100C3000D1F624E093FF03C03081382B3083880F36
:100C4000990F2150B9F78091B100887F816080931E
:100C5000B10080912400886080932400EFEFF9E6D2
:100C600028E1E150F0402040E1F700C000000E9480
:100C7000ED0063E884E00E94D00014E068E88FEFA4
:100C80000E94D0001150D1F768E080E00E94D000AF
:100C90008091B100887F81608093B10080912400B1
:100CA0008860809324004FEF61EE74E04150604013
:100CB0007040E1F700C0000064E084E091E00E9431
:100CC000260165E08FE291E00E94260166E083E361
:100CD00091E00E9426018091B100887F8093B1004D
:100CE00080912400877F809324008FEF99E6A8E10C
:100CF00081509040A040E1F700C0000057CF2295FE
:100D000093CF84E802CE83E800CE81E8FECD1F5F5A
:060D1000E6CDF894FFCFD0
:080D1600001480085F80010059
:00000001FF
