:100000008031AF28FF3FFF3F80310B1C9E28270027
:10001000131E9E28200018101708F5001608F4007B
:100020009601970118142100111420000C1E1B28A2
:100030002100D1151D282100D1115108CF392038B8
:10004000D100013075027830031974020230031CAC
:100050005528750271300319740203185428510889
:100060000339F200F20A51087206FC397206D10017
:1000700051080339023A031D4C28510CF200F20CCE
:10008000720C0139F300F30E51087306CF39730671
:10009000D100FC30D105802851080339013A031DF5
:1000A00080283030D104802802307502EF300319E7
:1000B0007402031C802804307502E23003197402B4
:1000C0000318802851080339F200F20A5108720619
:1000D000FC397206D10051080339023A031D802809
:1000E000510CF200F20C720C0139F300F30E5108BE
:1000F0007306CF397306D1005108FC390138D1009D
:10010000510E0339F2000230720203189128D11BFC
:100110008D2885318A2580319B2886315F26803164
:100120009B28510E0339023A031D9B28D0018330CE
:10013000D105D201D301270013120B102000111C8E
:1001400009001810960197012100111020001110CC
:100150002100D0018330D105D201D30109008801EB
:100160008031B228D03084000030850017308631CD
:10017000A226803120308400013085002030863175
:10018000A22680310030F6001430F7008030F800ED
:100190000830F90021005F30E7008030E8000130CE
:1001A000E9000030EA000030EB001430EC00803051
:1001B000ED004030EE002000DD28F03021009900F5
:1001C00095012200910120009E012200970101303B
:1001D0009D00FB3021008C0020008C0123008C014D
:1001E000083024008C008B0120008C19F9288F31F5
:1001F000002F9E228031AC2280312100CD01CE0122
:100200005A2280310A3021004E0203181F293C3047
:10021000BE0005302000A00021004E08672280317A
:100220002100BE073E08C6228031C100103A0319E2
:100230001F29C108031D1D29CE0A5A228031FE2222
:100240008031003A03190229032380312100CF00B5
:10025000043A031D36294D084E02C20042085222BC
:100260008031210042095222803102294F08083A88
:10027000031D9A294E084D06031996290A304D028E
:10028000031896293C30C00005302000A000210052
:100290004D08672280312100C007CC01C60140080B
:1002A000860087010108CA00C00A4A0E0F39473E7E
:1002B0005222803121004A080F39473E52228031B4
:1002C00021004A08CC07C60A05304602031C4F2904
:1002D000CC09CC0A4C0E0F39473E52228031210006
:1002E0004C080F39473E522280312100C801C830E6
:1002F0002000A300A401C830A500A601A60A74220C
:100300008031003A03190229210048084C06031DD8
:100310000229CD0A4D084E06031D9229CD01CE01BA
:100320005A228031003052228031022982305222FA
:10033000803102294F08103A031DA629CD01CE01B4
:100340005A22803100305222803102294F08603910
:100350000319282A4F08CB000330CB05C8302000F2
:10036000A300A401A030A5000A30A00021004B0882
:1003700067228031023EA60074228031003A0319C0
:10038000242AA0302100C900BF01C7014B0820006A
:10039000A000A1010530A200A3010823803121089B
:1003A000803ABB0080303B02031DDA292100470858
:1003B00020002002031CFD29210049088600870136
:1003C0000108B93E2000EE002100C90A4908860054
:1003D0000108B93E2000EF002100C90A20006E0E7E
:1003E000F0396F042100C3004708A03E860043088F
:1003F00081004308BF07C70AC6292100BF08031DA3
:10040000202A20000C158B132100CF1E0E2A4B082A
:100410002000AC00A0301D238031142A4F1F142A65
:10042000A0308431072480310030522280312100F5
:10043000CD01CE015A22803120000C118B170229E8
:1004400084305222803102298330522280310229A5
:100450004F08023A031D4E2A003052228031C83024
:100460002000A300A401C430A5000230A60074221D
:100470008031003A03194A2A210045085A3AA5302A
:1004800003194406031D4A2A003052228B138F3170
:10049000002F0229853052228031022981305222D8
:1004A000803102292000A000111E542A20082300B8
:1004B0009A000800D001D101D201D30120001C15FF
:1004C00021008C12270013120B108B15080020003E
:1004D000A200A10120082218A107A035A236A20877
:1004E000031D6A2A21080800FA30A800260803190B
:1004F000982A240823040319982A911E892A25087A
:10050000860087012300190881002000A50AA603A0
:100510008E2A0A30A700A70B8B2A64002000A80BA4
:10052000762AFA30A8000130A3020030A43B762AD4
:100530002608003A003003190130080023009E16F7
:100540001D169D171E159F1540309B0003309C0003
:1005500021001112911208008C123F3020009B00E4
:10056000203025009100CF3093051308F0390C3866
:10057000930020001808CF39203898009601970181
:100580002700111612168B170B1708002000A10068
:100590002100511F103451132000A3012308D43E21
:1005A0008600870101082100DE062000A30A0A3028
:1005B0002302031CCE2AA401A20124082107A000C3
:1005C000860087012208D43E84008501000EF039A0
:1005D0008100A20A24082107A00086002208D43E38
:1005E000840000088104A20AA40A05302402031C26
:1005F000DD2A21005E08031D203400340030200075
:10060000911A01300800911E032B230019080800DD
:10061000A401A501201C102B2208A4072308A53D36
:10062000A235A30DA136A00C21082004031D0A2B1E
:100630002508A1002408A0000800B0001C15210016
:100640008C1215302000AF003730AE00CA30AD003C
:10065000AD0B282BAE0B282BAF0B282B2F2B2000FC
:100660002C080339AD00AD0CAD0C2D0CC039F904CC
:10067000B1012C08310203184F2B0530A0003108BE
:100680006722AD0030082D07A300310809070907CC
:100690000907203E8531F5258031B10A392BB20199
:1006A0002C0832020318722B3208090709070907C0
:1006B000203EA5000130A6000314320DA7009223AE
:1006C000803120003208090709070907243EA500E8
:1006D0000130A6003235023EA7009223803120006F
:1006E000B20A502B7630A500A601A70192238031D3
:1006F000F523803102302000A0000030BF2380317C
:100700001530AF003730AE00CA30AD00AD0B862BD0
:10071000AE0B862BAF0B862B8D2B20001C112100DE
:100720008C160800F523803103302000A00004302F
:10073000BF238031AB010830A000250886002608C1
:1007400087000108BF238031A50A0319A60AAB0A56
:1007500004302B02031C9B2B0330A0002708BF236F
:1007600080310530AA000B30A900F230A800A80B98
:10077000B72BA90BB72BAA0BB72BBE2B0800A300D6
:100780000130A1002003890AC62BA135890BC52B96
:100790002108A400A0032008FF3A03190800DB3059
:1007A000A100D22BD32BA10BD12BD62B20002308B9
:1007B00024050319E42B0330A200A730A100A10BEC
:1007C000DF2BA20BDF2BE42B20001C1121008C1649
:1007D000B3302000A100EC2BA10BEB2B20001C154B
:1007E00021008C122000A335CA2B20001C112100EF
:1007F0008C1603302000A1007D30A000A00BFE2B42
:10080000A10BFE2B20001C1521008C1208002000DB
:10081000B700DF30BA0086008701FF308100BA0AD6
:100820003A0886008101810A0230B9008030B600A2
:10083000B201B801B101B301370886008701010890
:1008400036050319292C0130B1063A08860039080B
:100850008104B935B908031D342CB901B90ABA0AA3
:100860003A08860087018101B636B608031D3A2C86
:100870008030B600B30A04303302031C1C2C31084C
:100880000319472C3A088600870139088104B935D5
:10089000B908031D522CB901B90ABA0A3A088600F0
:1008A00087018101381C5C2C37088600870101080C
:1008B0000F39B206B70A622C370886008701010E8D
:1008C0000F39B206B80A0A303802031C1A2CB401D8
:1008D000B21D6F2C3A088600870139088104B935AA
:1008E000B235B40A04303402031C682C1C152100F4
:1008F0008C1215302000B0003730AF00CA30AE0087
:10090000AE0B802CAF0B802CB00B802C872C3225AB
:10091000843183302000A300043016258431200068
:10092000B5018830A300FF30162584312000B50AB8
:1009300004303502031C912C0830A300003016252A
:10094000843120001C1521008C1205302000B000DD
:100950000B30AF00F230AE00AE0BAC2CAF0BAC2CBA
:10096000B00BAC2CB32C04302000A700E730D82407
:10097000843105302000A700DF30D82484310630D0
:100980002000A700E330D824843120001C1121006E
:100990008C1615302000B0003730AF00CA30AE00E2
:1009A000AE0BD02CAF0BD02CB00BD02CD72C08001A
:1009B000AC003225843183302000A300023016259C
:1009C000843186302000A3002708162584312000BA
:1009D000AB01AD018830A3002C0886008701010817
:1009E0001625843120002C08860087010108AB06FB
:1009F000AC0AAD0A04302D02031CEA2C0830A30017
:100A00002B081625843120001C1521008C1205307E
:100A10002000AA000B30A900F230A800A80B0E2D70
:100A2000A90B0E2DAA0B0E2D152D0800A4002308CE
:100A3000A5008030A505A313A3032308FF3A0319DB
:100A40002C2D003024180130A600612584312000AF
:100A50002608A506A4361C2D2508813A0030031966
:100A60000130612D20001C1121008C167F302000E8
:100A7000A300A30B392D3C2D20001C1521008C1246
:100A8000FF302000A300A30B432D462D20001C1196
:100A900021008C1604302000A4005130A300A30BC9
:100AA0004F2DA40B4F2D542D20001C1521008C120E
:100AB000D9302000A3005C2DA30B5B2D5F2D0030EF
:100AC000612D2000A20022080319742D1C1521009D
:100AD0008C1203302000A100A730A000A00B6E2DC7
:100AE000A10B6E2D732D08001C1121008C1689306E
:100AF0002000A0007B2D7C2DA00B7A2D20001C1542
:100B000021008C12D9302000A000862DA00B852D4D
:100B1000892D0800093052020318952D510E033912
:100B2000031DE22DFF30D200E22D510E0339F000FB
:100B3000510CF100710C0139F1007008F106F10D52
:100B4000F10D51087106FB397106D10050080F39BB
:100B5000F000F00A50087006F0397006D000500816
:100B60000F39053A031DDD2D52083F3A0319BA2DFE
:100B70005119C22D52083F3A031DC72D510E03399A
:100B80000319C72DFF30D2000F30D005D82D500EDD
:100B90000F39D43E8600870153088100500E0F396B
:100BA000F000F00AF00E500870060F397006D00001
:100BB000F030D0055111D301E22DD335510E033958
:100BC000031D5314D20A5208403A031D08002000A6
:100BD00018109601970121001110200011101C110E
:100BE00021008C168B1151170800AA0086000130D5
:100BF0008700FF308100AA0A2A0886008030810021
:100C00004030A9008030A700A501A801A401A601D9
:100C1000230886008701010827050319172E0130D4
:100C2000A4062A0886000130870029088104A93615
:100C3000A908031D232E8030A900AA0A2A088600CD
:100C4000013087008101A736A708031D292E8030B7
:100C5000A700A60A04302602031C082E2408031944
:100C6000372E2A0886000130870029088104A9361A
:100C7000A908031D432E8030A900AA0A2A0886006D
:100C8000013087008101281C4D2E23088600870132
:100C900001080F39A506A30A532E230886008701F1
:100CA000010E0F39A506A80A0A302802031C062ED9
:100CB0002A08860001308700253581040800D20803
:100CC000031D6A2E510E0339013A031D912EFF3088
:100CD000D200912ED335510E0339031D5314500801
:100CE0000F39F000F00A50087006F0397006D00095
:100CF00050080F39083A031D912E500E0F39D43E7B
:100D00008600870153088100500E0F39F000F00A69
:100D1000F00E500870060F397006D000F030D00584
:100D2000D301D20A5208213A031D080020001810EE
:100D30009601970121001110200011108B11210044
:100D400051170800640080010131890BA32E003483
:020000040001F9
:04000E0084C9FFDBC7
:00000001FF
