:100000008031AF28FF3FFF3F80310B1C9E28270027
:10001000131E9E28200018101708F5001608F4007B
:100020009601970118142100111420000C1E1B28A2
:100030002100D2151D282100D2115208CF392038B5
:10004000D200013075027830031974020230031CAB
:100050005528750271300319740203185428520888
:100060000339F200F20A52087206FC397206D20015
:1000700052080339023A031D4C28520CF200F20CCC
:10008000720C0139F300F30E52087306CF39730670
:10009000D200FC30D205802852080339013A031DF2
:1000A00080283030D204802802307502EF300319E6
:1000B0007402031C802804307502E23003197402B4
:1000C0000318802852080339F200F20A5208720617
:1000D000FC397206D20052080339023A031D802807
:1000E000520CF200F20C720C0139F300F30E5208BC
:1000F0007306CF397306D2005208FC390138D2009A
:10010000520E0339F2000230720203189128D21BFA
:100110008D288531982580319B2886316D26803148
:100120009B28520E0339023A031D9B28D1018330CC
:10013000D205D301D401270013120B102000111C8B
:1001400009001810960197012100111020001110CC
:100150002100D1018330D205D301D40109008801E7
:100160008031B228D13084000030850017308631CC
:10017000B026803120308400013085002030863167
:10018000B02680310030F6001430F7008030F800DF
:100190000830F90021005F30E8008030E9000130CC
:1001A000EA000030EB000030EC001430ED0080304D
:1001B000EE004030EF002000DD28F03021009900F3
:1001C00095012200910120009E012200970101303B
:1001D0009D00FB3021008C0020008C0123008C014D
:1001E000083024008C008B0120008C19F9288F31F5
:1001F000002FAC228031BA2280312100CF01D00102
:10020000682280310A302100500203181F293E3035
:10021000C00005302000A000210050087522803168
:100220002100C0074008D4228031C300103A0319CE
:100230001F29C308031D1D29D00A682280310C2301
:100240008031003A03190229112380312200C000B5
:10025000043A031D372921004F085002C400440806
:100260006022803121004409602280310229400847
:10027000083A031D9C29210050084F0603199829AC
:100280000A304F02031898293E30C2000530200082
:10029000A00021004F08752280312100C207CE0145
:1002A000C8014208860087010108CC00C20A4C0E32
:1002B0000F39473E6022803121004C080F39473EFC
:1002C0006022803121004C08CE07C80A0530480260
:1002D000031C5129CE09CE0A4E0E0F39473E60222B
:1002E000803121004E080F39473E602280312100C5
:1002F000CA01C8302000A300A401CA30A500A6018D
:10030000A60A82228031003A0319022921004A08F4
:100310004E06031D0229CF0A4F085006031D9429DB
:10032000CF01D00168228031003060228031022963
:1003300082306022803102294008103A031DA92929
:100340002100CF01D001682280310030602280314D
:100350000229400860390319272A40082100CD00EE
:100360000330CD05C8302000A300A401A030A500B3
:100370000A30A00021004D0875228031023EA600FF
:1003800082228031003A0319232AA0302100CB00B9
:10039000C101C9014D082000A000A1010530A20043
:1003A000A301162380312108803ABB0080303B0234
:1003B000031DDE292100490820002002031CFB291F
:1003C00021004B08860087010108B93EBE00CB0A18
:1003D0004B0886000108B93EBF00CB0A3E0EF0393B
:1003E0003F04C5004908A03E860045088100450835
:1003F000C107C90ACA292100C108031D1F2A2000FC
:100400000C158B132200C01E0D2A21004D08200060
:10041000AC00A0302B238031132A401F132AA030B8
:100420008431152480310030602280312100CF01D9
:10043000D0016822803120000C118B1702298430F2
:1004400060228031022983306022803102294008F5
:10045000023A031D5C2A003060228031C83020003F
:10046000A300A401C630A5000230A600822280317C
:10047000003A0319582A210047085A3AA5300319AF
:100480004606031D582A8B1300306022803103304A
:100490002000BD000630BC007730BB00BB0B4E2AED
:1004A000BC0B4E2ABD0B4E2A64008F31002F02294F
:1004B000853060228031022981306022803102291A
:1004C0002000A000111E622A200823009A000800C4
:1004D000D101D201D301D40120001C1521008C12BE
:1004E000270013120B108B1508002000A200A10199
:1004F00020082218A107A035A236A208031D782AD9
:1005000021080800FA30A80026080319A62A2408A2
:1005100023040319A62A911E972A2508860087011D
:100520002300190881002000A50AA6039C2A0A308E
:10053000A700A70B992A64002000A80B842AFA3090
:10054000A8000130A3020030A43B842A2608003A08
:10055000003003190130080023009E161D169D1758
:100560001E159F1540309B0003309C002100111286
:10057000911208008C123F3020009B002030250093
:100580009100CF3093051308F0390C389300200008
:100590001808CF39203898009601970127001116C6
:1005A00012168B170B1708002000A1002100521F04
:1005B000103452132000A3012308D53E8600870182
:1005C00001082100DF062000A30A0A302302031CD1
:1005D000DC2AA401A20124082107A00086008701CB
:1005E0002208D53E84008501000EF0398100A20A60
:1005F00024082107A00086002208D53E84000008B8
:100600008104A20AA40A05302402031CEB2A21005B
:100610005F08031D2034003400302000911A01309F
:100620000800911E112B230019080800A401A50140
:10063000201C1E2B2208A4072308A53DA235A30DCC
:10064000A136A00C21082004031D182B2508A100A9
:100650002408A0000800B0001C1521008C121530E1
:100660002000AF003730AE00CA30AD00AD0B362BE6
:10067000AE0B362BAF0B362B3D2B20002C0803394D
:10068000AD00AD0CAD0C2D0CC039F904B1012C0836
:10069000310203185D2B0530A00031087522AD0032
:1006A00030082D07A3003108090709070907203E74
:1006B000863103268031B10A472BB2012C08320261
:1006C0000318802B3208090709070907203EA500F7
:1006D0000130A6000314320DA700A02380312000B2
:1006E0003208090709070907243EA5000130A600C2
:1006F0003235023EA700A02380312000B20A5E2BD3
:100700007630A500A601A701A02380310324803103
:1007100002302000A0000030CD2380311530AF0022
:100720003730AE00CA30AD00AD0B942BAE0B942B1E
:10073000AF0B942B9B2B20001C1121008C16080062
:100740000324803103302000A0000430CD23803109
:10075000AB010830A00025088600260887000108A4
:10076000CD238031A50A0319A60AAB0A04302B0257
:10077000031CA92B0330A0002708CD2380310530AE
:10078000AA000B30A900F230A800A80BC52BA90BBA
:10079000C52BAA0BC52BCC2B0800A3000130A10050
:1007A0002003890AD42BA135890BD32B2108A4005F
:1007B000A0032008FF3A03190800DB30A100E02B5A
:1007C000E12BA10BDF2BE42B2000230824050319C8
:1007D000F22B0330A200A730A100A10BED2BA20B3E
:1007E000ED2BF22B20001C1121008C16B3302000C1
:1007F000A100FA2BA10BF92B20001C1521008C1253
:100800002000A335D82B20001C1121008C160330AA
:100810002000A1007D30A000A00B0C2CA10B0C2C03
:1008200020001C1521008C1208002000B700E030C9
:10083000BA0086008701FF308100BA0A3A088600B4
:100840008101810A0230B9008030B600B201B801DE
:10085000B101B30137088600870101083605031985
:10086000372C0130B1063A08860039088104B935C1
:10087000B908031D422CB901B90ABA0A3A08860020
:1008800087018101B636B608031D482C8030B600BA
:10089000B30A04303302031C2A2C31080319552CE7
:1008A0003A088600870139088104B935B908031D63
:1008B000602CB901B90ABA0A3A0886008701810199
:1008C000381C6A2C37088600870101080F39B206E8
:1008D000B70A702C370886008701010E0F39B2065F
:1008E000B80A0A303802031C282CB401B21D7D2C32
:1008F0003A088600870139088104B935B235B40A4F
:1009000004303402031C762C1C1521008C12153087
:100910002000B0003730AF00CA30AE00AE0B8E2CD6
:10092000AF0B8E2CB00B8E2C952C40258431833050
:100930002000A3000430242584312000B501883034
:10094000A300FF30242584312000B50A043035028D
:10095000031C9F2C0830A300003024258431200084
:100960001C1521008C1205302000B0000B30AF00A8
:10097000F230AE00AE0BBA2CAF0BBA2CB00BBA2CC7
:10098000C12C04302000A700E830E6248431053073
:100990002000A700E030E624843106302000A700C4
:1009A000E430E624843120001C1121008C1615301F
:1009B0002000B0003730AF00CA30AE00AE0BDE2CE6
:1009C000AF0BDE2CB00BDE2CE52C0800AC00402574
:1009D000843183302000A300023024258431863006
:1009E0002000A3002708242584312000AB01AD019D
:1009F0008830A3002C088600870101082425843153
:100A000020002C08860087010108AB06AC0AAD0A5D
:100A100004302D02031CF82C0830A3002B082425D9
:100A2000843120001C1521008C1205302000AA0002
:100A30000B30A900F230A800A80B1C2DA90B1C2D0F
:100A4000AA0B1C2D232D0800A4002308A50080302C
:100A5000A505A313A3032308FF3A03193A2D003079
:100A600024180130A6006F25843120002608A50631
:100A7000A4362A2D2508813A0030031901306F2D44
:100A800020001C1121008C167F302000A300A30B36
:100A9000472D4A2D20001C1521008C12FF3020000C
:100AA000A300A30B512D542D20001C1121008C16E6
:100AB00004302000A4005130A300A30B5D2DA40B33
:100AC0005D2D622D20001C1521008C12D9302000D4
:100AD000A3006A2DA30B692D6D2D00306F2D200012
:100AE000A20022080319822D1C1521008C1203304C
:100AF0002000A100A730A000A00B7C2DA10B7C2D15
:100B0000812D08001C1121008C1689302000A000C6
:100B1000892D8A2DA00B882D20001C1521008C12F8
:100B2000D9302000A000942DA00B932D972D080004
:100B3000093053020318A32D520E0339031DF02D63
:100B4000FF30D300F02D520E0339F000520CF100AB
:100B5000710C0139F1007008F106F10DF10D520828
:100B60007106FB397106D20051080F39F000F00A06
:100B700051087006F0397006D10051080F39053A56
:100B8000031DEB2D53083F3A0319C82D5219D02DE0
:100B900053083F3A031DD52D520E03390319D52DA5
:100BA000FF30D3000F30D105E62D510E0F39D53E61
:100BB0008600870154088100510E0F39F000F00AB9
:100BC000F00E510870060F397006D100F030D105D3
:100BD0005211D401F02DD435520E0339031D541493
:100BE000D30A5308403A031D08002000181096014C
:100BF000970121001110200011101C1121008C16EA
:100C00008B1152170800AA00860001308700FF30C0
:100C10008100AA0A2A088600803081004030A9009D
:100C20008030A700A501A801A401A6012308860021
:100C30008701010827050319252E0130A4062A087B
:100C400086000130870029088104A936A908031D00
:100C5000312E8030A900AA0A2A08860001308700B8
:100C60008101A736A708031D372E8030A700A60AEA
:100C700004302602031C162E24080319452E2A08C8
:100C800086000130870029088104A936A908031DC0
:100C9000512E8030A900AA0A2A0886000130870058
:100CA0008101281C5B2E23088600870101080F396B
:100CB000A506A30A612E230886008701010E0F39BD
:100CC000A506A80A0A302802031C142E2A0886004A
:100CD00001308700253581040800D308031D782ED4
:100CE000520E0339013A031D9F2EFF30D3009F2E71
:100CF000D435520E0339031D541451080F39F00036
:100D0000F00A51087006F0397006D10051080F3909
:100D1000083A031D9F2E510E0F39D53E86008701DC
:100D200054088100510E0F39F000F00AF00E5108FE
:100D300070060F397006D100F030D105D401D30A06
:100D40005308213A031D080020001810960197014E
:100D500021001110200011108B11210052170800E2
:100D6000640080010131890BB12E0034FF3FFF3F49
:020000040001F9
:04000E0084C9FFDBC7
:00000001FF
