:100000000C9434000C9456070C9451000C9451003D
:100010000C9451000C9451000C9451000C9451001C
:100020000C9451000C9451000C9451000C9451000C
:100030000C9451000C9426080C9451000C9451001F
:100040000C9451000C9451000C9451000C945100EC
:100050000C9451000C9451000C9451000C945100DC
:100060000C9451000C94510011241FBECFEFD8E026
:10007000DEBFCDBF11E0A0E0B1E0E8E2F3E102C0F5
:1000800005900D92AC30B107D9F721E0ACE0B1E0BA
:1000900001C01D92A334B207E1F70E9455080C94E9
:1000A00092090C9400008230910538F0880F991F56
:1000B000880F991F05970197F1F70895CF93C42FE3
:1000C000DC01CB01880F991FAA1FBB1F880F991F46
:1000D000AA1FBB1F9C01AD01220F331F441F551FD8
:1000E000220F331F441F551F60E074E284EF90E03D
:1000F0000E94700921503109E0ECF0E0358324833F
:10010000CE73C283E1ECF0E08081886080838081DF
:1001100080618083CF9108958091C00087FB8827FC
:1001200080F990E008958091C00087FFFCCF809116
:10013000C6000895DC01FB01411104C013C01197F2
:10014000442381F01097B1F09AEF2091C00027FF6F
:100150000CC08091C600808341503196915079F354
:100160004111F3CF81E090E0089585E18A95F1F7A0
:100170000000F4CF80E090E008959091C00095FFDA
:10018000FCCF8093C60008952FEF260F662351F011
:10019000FC018091C00085FFFCCF81918093C60057
:1001A0002150B8F70895982F92959F709A30B0F02B
:1001B00027E3290F9091C00095FFFCCF2093C60044
:1001C0008F708A3048F490E3890F9091C00095FFBA
:1001D000FCCF8093C600089597E3F6CF20E3E9CFE4
:1001E000FC01E60FF11D4FEF460F6623E1F022916F
:1001F000322F32953F703A30B8F097E3390F909133
:10020000C00095FFFCCF3093C600922F9F709A30AC
:1002100068F420E3290F9091C00095FFFCCF209354
:10022000C600415020F7089590E3E8CF27E3F2CFCE
:10023000FC012081222351F031969091C00095FF5E
:10024000FCCF2093C60021912111F7CF0895E4E25D
:10025000F0E0808188608083E0EBF0E08081836063
:100260008083A1EBB0E08C9188608C9380818F7348
:10027000806480838FE38383809169008C7F8160B9
:100280008093690080913C008E7F80933C0078943D
:100290000895E4E3F1E01182108212821382E1EB0F
:1002A000F0E08081887F81608083E4E2F0E08081FB
:1002B0008860808380913C008E7F80933C00809199
:1002C0003D00816080933D0008952091350126FD19
:1002D00002C080E10895209135012F7B20933501E4
:1002E00020E030E0F901EC5CFE4F54814091420186
:1002F0004527409342012F5F3F4F2A30310591F748
:10030000FC0180E090E0DC01AC5CBE4F14962C91C7
:100310002295207F2083DC01AB5CBE4F14963C917C
:10032000232B219302968A30910569F7809142012F
:10033000882311F080E208950895A1EBB0E08C913C
:10034000887F8C93E4E2F0E08081877F80838FEB6D
:1003500093E00197F1F700C000008C91887F8160E5
:100360008C9380818860808308959FEF960F21E0B1
:1003700001C0220F9A95EAF761111FC02EC090911B
:10038000B100987F9093B10090912400977F909353
:100390002400EFEBF1E03197F1F700C000009091FD
:1003A000B100987F91609093B10090912400986083
:1003B00090932400880F615081F0EFEFF2E03197C5
:1003C000F1F700C00000922F9823C9F2EFEFF3E09D
:1003D0003197F1F700C00000D2CF08952091B1000D
:1003E000287F2093B10020912400277F20932400B0
:1003F000AFEBB3E01197F1F700C000002091B1001E
:10040000287F21602093B100209124002860209350
:10041000240043E034E0EFEFF2E03197F1F700C061
:10042000000032FD8DC02091B100287F2093B100E3
:1004300020912400277F20932400EFEBF1E03197F7
:10044000F1F700C000002091B100287F21602093C7
:10045000B10020912400286020932400330F4150E4
:10046000D1F6FC01AC014C5F5F4F219198E01EC0BA
:100470008091B100887F8093B10080912400877FB4
:1004800080932400AFEBB1E01197F1F700C00000BA
:100490008091B100887F81608093B10080912400B9
:1004A000886080932400220F915079F0AFEFB2E082
:1004B0001197F1F700C0000027FFDACFAFEFB3E0EC
:1004C0001197F1F700C00000D3CFE417F50769F6E4
:1004D00093E0EFEFF2E03197F1F700C0000062FD2A
:1004E00028C08091B100887F8093B1008091240062
:1004F000877F80932400EFEBF1E03197F1F700C0A4
:1005000000008091B100887F81608093B10080916C
:100510002400886080932400660F9150D1F6FFEF8D
:1005200021EE84E0F15020408040E1F700C000005F
:100530000895AFEFB3E01197F1F700C00000D1CFFD
:10054000AFEFB3E01197F1F700C000006CCFCF938D
:10055000DF93DB01FC0131962FEFEC01288320E8CB
:10056000298350E060E090E820E471E0822F34E0DD
:1005700040E02C91292321F047272081282B20833C
:10058000869509F1282F2695969509F490E8315023
:1005900081F7442319F03081832B8083211103C01C
:1005A0001182319620E88C9150FF12C08F7068271D
:1005B00011965F5F5A30D1F6660F8081682B608399
:1005C000DF91CF9108951182319620E480E8DCCF4D
:1005D00082958F706827EDCF0F931F93CF93DF9392
:1005E000BC0101EB10E0F8019081987F916090834D
:1005F000C4E2D0E0988198609883FFEF29E688E113
:10060000F15020408040E1F700C000008CE291E012
:100610000E94A70261E08CE291E00E94EE0162E09C
:1006200080E391E00E94EE0160E088E091E00E94AA
:10063000EE01F8018081887F80838881877F8883AD
:100640008FEB93E00197F1F700C000008081887F75
:10065000816080838881886088838FEF92E0019732
:10066000F1F700C000008081887F80838881877FC8
:1006700088838FEB91E00197F1F700C00000808143
:10068000887F816080838881886088838FEF92E093
:100690000197F1F700C000008081887F8083888106
:1006A000877F88838FEB91E00197F1F700C000000E
:1006B0008081887F81608083888188608883FFEF64
:1006C00029E688E1F15020408040E1F700C00000B9
:1006D000F8018081887F80838881877F8883DF918C
:1006E000CF911F910F910895CF92DF92EF92FF92D9
:1006F0000F931F93CF93DF93E62E2091B100287FB5
:1007000021602093B10020912400286020932400D0
:100710002FEF39E648E1215030404040E1F700C07A
:10072000000040E4649F9001112430910701232BC5
:1007300020930701662319F104E111E0EC0168013F
:10074000F12CBE01C6010E94A702F39448E0C40E3A
:10075000D11C2596EF10F5CFD0E0CD2FCC0F61E066
:100760006C0FC8010E94EE0162E06C0FC801049694
:100770000E94EE01DF5F085F1F4FED12EECF60E0D9
:1007800084E091E00E94EE018091B100887F809327
:10079000B10080912400877F809324008FEB93E049
:1007A0000197F1F700C000008091B100887F81605F
:1007B0008093B100809124008860809324008FEFA3
:1007C00092E00197F1F700C000008091B100887FAE
:1007D0008093B10080912400877F809324008FEB69
:1007E00091E00197F1F700C000008091B100887F8F
:1007F00081608093B1008091240088608093240000
:100800008FEF92E00197F1F700C000008091B100F6
:10081000887F8093B10080912400877F809324009B
:100820008FEB91E00197F1F700C000008091B100DB
:10083000887F81608093B1008091240088608093DC
:1008400024009FEF29E638E1915020403040E1F745
:1008500000C000008091B100887F8093B10080913A
:100860002400877F80932400DF91CF911F910F9107
:10087000FF90EF90DF90CF900895811122C080917A
:10088000B100887F8093B10080912400877F80939E
:1008900024008FED91E00197F1F700C000008091F6
:1008A000B100887F81608093B100809124008860CE
:1008B000809324008FE192E00197F1F700C00000DF
:1008C00008958091B100887F81608093B10080910C
:1008D00024008860809324008FEF93E00197F1F764
:1008E00000C000000895A1EBB0E08C91887F8C934C
:1008F000E4E2F0E08081877F80838FEB90E00197D6
:10090000F1F700C000008C91887F81608C9380811A
:10091000886080838FE791E00197F1F700C00000C5
:100920008C91887F8C938081877F80838FEF94E088
:100930000197F1F700C000008C91887F81608C9353
:100940008081886080838FE192E00197F1F700C099
:1009500000008C91887F8C938081877F80838FEDCE
:1009600091E00197F1F700C000008C91887F8160D1
:100970008C938081886080838FE192E00197F1F70A
:1009800000C000000895262F20786F7799F43DC0AD
:1009900091609093B100909124009860909324000E
:1009A000EFEFF3E03197F1F700C0000023278695C1
:1009B000615049F1382F31709091B100987F80FDDE
:1009C000E7CF9093B10090912400977F90932400FB
:1009D000EFEDF1E03197F1F700C000009091B10028
:1009E000987F91609093B1009091240098609093CB
:1009F0002400EFE1F2E03197F1F700C00000232777
:100A000086956150B9F6213811F18091B100887F47
:100A10008093B10080912400877F80932400EFEDC4
:100A2000F1E03197F1F700C000008091B100887FBC
:100A300081608093B10080912400886080932400BD
:100A40008FE192E00197F1F700C0000008958091D6
:100A5000B100887F81608093B1008091240088601C
:100A6000809324008FEF93E00197F1F700C000001E
:100A70000895CF92DF92EF92FF921F93CF93DF936F
:100A8000F82E192FC62F0E94730463E882E00E949B
:100A9000C30466E88C2F0E94C304CF2DD12F6E01B2
:100AA00024E0C20ED11C10E07E0168E889910E940A
:100AB000C304F70180811827CC15DD05A9F768E08C
:100AC000812F0E94C3048091B100887F8160809350
:100AD000B10080912400886080932400FFEF21EE14
:100AE00084E0F15020408040E1F700C00000DF9139
:100AF000CF911F91FF90EF90DF90CF900895CF930B
:100B0000DC018FEF80930C0181E080930D0150E0B8
:100B100060E020E832E0EDE0F1E071E0932F44E0A6
:100B200080E03C91322321F087273081392B3083BC
:100B3000990F09F481C0392F330F269509F420E865
:100B4000415079F7882319F08081982B90833111D7
:100B500003C01182319631E08C9150FF72C08F70CA
:100B6000682711965F5F5A30C9F684E063FF03C0BF
:100B70009081932B9083330F660F8150B9F780914A
:100B8000B100887F81608093B100809124008860EB
:100B9000809324002FEF89E698E121508040904017
:100BA000E1F700C000000E94730463E884E00E9443
:100BB000C304C4E068E88FEF0E94C304C150D1F7BA
:100BC00068E080E00E94C3048091B100887F81606A
:100BD0008093B100809124008860809324002FEFDF
:100BE00081EE94E0215080409040E1F700C0000089
:100BF00064E080E091E00E94390565E08CE091E0DE
:100C00000E94390566E080E191E00E9439058091FB
:100C1000B100887F8093B10080912400877F80930A
:100C200024002FEF89E698E1215080409040E1F7C1
:100C300000C00000CF9108951182319632E091E01A
:100C40007CCF82958F7068278DCF80913601893057
:100C500080F4809135018295837019F48FEF809331
:100C60003601809136018F5F809336018034A1F187
:100C70000895809135019091350192FB992790F963
:100C80008295817089279091350180FB92F990932C
:100C90003501809134018F5F8F7090913401907F86
:100CA000982B90933401853009F43EC08091370130
:100CB000880F80933701809135018295837089F286
:100CC00080913701816080933701809136018F5F79
:100CD00080933601803461F680918100887F809313
:100CE0008100109285001092840080916F008E7FA9
:100CF00080936F00809136008E7F809336008091C4
:100D0000B100887F8093B10080912400877F809319
:100D1000240080913D008E7F80933D0080913501BD
:100D20008064809335010895809136018F3309F1F5
:100D30008091350182FF1DC08FEF80933601809135
:100D400034018F708093340180913401807F8093CF
:100D50003401809135018B7F8093350110923701EA
:100D6000809136018F5F80933601803409F080CF07
:100D7000B3CF809136018F33B1F0E0913401E29529
:100D8000EF70F0E080913701EC5CFE4F848380913E
:100D90003401807F90E1980F809134018F70892B0E
:100DA00080933401D1CF809135018295837029F3EE
:100DB000C3CF80913601811110C080913501829599
:100DC0008370813009F466C0809136018F5F809313
:100DD0003601813209F440C0089580913701880FAF
:100DE00080933701809135018295837029F080913D
:100DF0003701816080933701809134018F5F8F705C
:100E000090913401907F982B909334018830E1F6D3
:100E1000E0913401E295EF70F0E080913701EC5CF5
:100E2000FE4F848380913401807F90E1980F809100
:100E300034018F70892B8093340180913401807F3D
:100E40008093340110923701809136018F5F809337
:100E50003601813209F0C0CF80918100887F809374
:100E60008100109285001092840080916F008E7F27
:100E700080936F00809136008E7F80933600809142
:100E80003D008E7F80933D0080913501806480938A
:100E9000350108958FEF80933601809136018F5F81
:100EA00080933601813209F097CFD6CF1F920F92EF
:100EB0000FB60F9211242F933F934F935F936F932D
:100EC0007F938F939F93AF93BF93EF93FF93809103
:100ED0008100887F8093810020918400309185007B
:100EE000109285001092840080918100887F82603A
:100EF0008093810080916F00816080936F0080916A
:100F0000290082FB882780F99091350180FB93F9B5
:100F100090933501809135018F7C806280933501FB
:100F2000C90188579140893F9105B8F580913501F5
:100F30008F5F8370909135019C7F982B9093350142
:100F4000823009F466C0809135018370813009F4E4
:100F500077C0809135018295837090E002970CF400
:100F600051C080913501829583708230E1F180918A
:100F70003C008E7F80933C00FF91EF91BF91AF9139
:100F80009F918F917F916F915F914F913F912F91A1
:100F90000F900FBE0F901F9018952F5E3240233F89
:100FA0003140B8F6809135018F5F837090913501A3
:100FB0009C7F982B90933501823059F680913501B2
:100FC00083FB882780F9982F9295907F8091350137
:100FD0008F7C892B80933501809135018C7F8160D6
:100FE00080933501B6CF80913401909135018827E7
:100FF00093789093350180933401109236011092CA
:101000003701B5CF8091350187FD17C00E942506B5
:10101000AECF8091350183FB882780F9982F929578
:10102000907F809135018F7C892B80933501809151
:1010300035018C7F809335018CCF0E94D90697CFE4
:101040008091350180638093350183CF1F920F9289
:101050000FB60F9211248F939F93EF93FF93E1E8C4
:10106000F0E08081887F8083109285001092840058
:10107000EFE6F0E080818E7F8083E6E3F0E0808120
:101080008E7F8083E4E3F1E08081918188279378EB
:101090009183808312821382FF91EF919F918F91B0
:1010A0000F900FBE0F901F901895CF93DF93CDB781
:1010B000DEB7C055D1090FB6F894DEBF0FBECDBF65
:1010C0001092250088E2809324001092280010924C
:1010D000270010922B0010922A0046E060E875E28B
:1010E00080E090E00E945E000E9427010E9449017A
:1010F00010E0F12C1A3008F462C00E948C00892B99
:10110000C9F30E949300082F843009F4BFC08830CF
:1011100009F46DC0803109F4C3C0807609F463C05E
:10112000F02FF370EF2E4F2F440F842F880F880F6E
:10113000480F4E5FBE016D5C7F4F88EC90E00E94CF
:101140009A00892B09F4B4C025E0E29EA001112485
:10115000FE01F39620E030E060E070E0808187548B
:10116000A0E18A9FC001112491819754892BA3E3A8
:10117000B0E0AC0FBD1FA20FB31F8C93780F6F5F51
:10118000262F30E032964217530744F7711194C06E
:1011900080912500806280932500F89405FD90C021
:1011A00006FD94C080E00E94BD000E94490180912C
:1011B00025008F7D80932500789410E0F12C81E04C
:1011C00090E08C0F9D1F25E0129F800D911D112432
:1011D0000E946501803109F490CF811101C01F5F29
:1011E0000E9449018ACF81E80E94BD0083CFF11699
:1011F00009F448C089E08F1508F444C0CC24C39496
:10120000D12CCC0EDD1EA5E0FA9EC00CD11C112401
:101210005601E5E0AE0EB11CE12CF60101916F0123
:10122000802F82958F70895B0E94BD00802F8F7008
:10123000895B0E94BD00E00EAC14BD0471F70E2D59
:101240000195802F82958F70895B0E94BD00802F51
:101250008F70895B0E94BD001BAA41E0BE016D5CDE
:101260007F4F88EC90E00E949A00892B09F442CFCE
:101270008BA908133FCFF3941F1569F180E00E94FA
:10128000BD0038CF82E80E94BD0034CF012F0F1976
:10129000802F0E94BD00802F80950E94BD002ACF24
:1012A0000E94490180E00E94BD0010E0F12C87CF30
:1012B00083E80E94BD001ECF84E80E94BD001ACFC3
:1012C0006E2DCE01C3960E9474036CCFCE01C396DF
:1012D0000E947F0567CF0E94490110E0F12CCECF1C
:1012E000A1E21A2EAA1BBB1BFD010DC0AA1FBB1F2A
:1012F000EE1FFF1FA217B307E407F50720F0A21B9C
:10130000B30BE40BF50B661F771F881F991F1A9408
:1013100069F760957095809590959B01AC01BD0132
:08132000CF010895F894FFCFFE
:0C1328005F800100001480080014804069
:00000001FF
